:100000000C9434000C9449000C9449000C94490061
:100010000C9449000C9449000C9449000C9449003C
:100020000C9449000C9449000C9449000C9449002C
:100030000C9449000C9449000C9449000C9449001C
:100040000C9449000C9449000C9449000C9449000C
:100050000C9449000C9449000C9449000C944900FC
:100060000C9449000C94490011241FBECFEFD8E036
:10007000DEBFCDBF11E0A0E0B1E0ECE2FFE002C0E6
:1000800005900D92AC35B107D9F70E9433020C945C
:1000900094070C9400008F929F92AF92BF92EF92C0
:1000A000FF920F931F93CF93DF93EBE7F0E09081E4
:1000B0001082EAE7F0E0908190689083ECE7F0E04E
:1000C0009081906490839081907F90839081892B20
:1000D0008083E12C6894FF24F6F8812C912C540144
:1000E000CAE7D0E008E710E08881806488838881CF
:1000F00086FDFDCF888180618883F80180819181B0
:10010000BC0180E090E00E9452039B01AC01C5015C
:10011000B4010E94B7024B015C01F1E0EF1AF10853
:1001200019F720E030E040E858E30E94E0030E9425
:100130002303CB01DF91CF911F910F91FF90EF909F
:10014000BF90AF909F908F9008955E9A00005E9848
:100150000895CF93DF93D82F662311F05C9A01C0E6
:100160005C985D988AB18F608AB9CBB1C07F8D2FC2
:1001700082958F708C2B8BB90E94A500DF70DC2BD1
:10018000DBB90E94A500CF60CBB9DF91CF91089574
:10019000882311F05C9A01C05C985D9A8AB1807FD7
:1001A0008AB95E9A000029B15E9800005E9A00004C
:1001B00099B12295207F892F8F705E98822B0895A8
:1001C00080E00E94C8008823DCF300C000C080E00B
:1001D0000E94C8000895CF93C82F0E94E00060E0FD
:1001E0008C2F0E94A900CF910895611104C08058FE
:1001F0000E94EB00089580540E94EB00089581E076
:100200000E94EB000895CF93C82F0E94E000CA30EF
:1002100049F4803410F080E001C080E480580E94EE
:10022000EB0004C061E08C2F0E94A900CF910895DB
:10023000CF93DF93EC012196FC018081882329F084
:100240000E94030189918111FBCFDF91CF91089525
:10025000CF93C82F9AB19F679AB98FE99FE0019712
:10026000F1F700C00000599A589A0E94A50081EE4B
:1002700094E00197F1F700C000000E94A50095E10D
:100280009A95F1F700000E94A50085E18A95F1F7A3
:10029000000058980E94A50095E19A95F1F700009A
:1002A00088E20E94EB0088E00E94EB000E94FF00C1
:1002B00086E00E94EB008C2F0E94EB00CF91089506
:1002C000AF92BF92CF92DF92EF92FF920F931F9364
:1002D000CF93DF93CDB7DEB7A2970FB6F894DEBF0A
:1002E0000FBECDBFD82EC92EB62EA72E8A017901FA
:1002F0008CE00E9428010336110508F09EC083E6B9
:10030000E816F10408F047C01F930F93CF92DF92D5
:1003100080E091E09F938F93CE0101969F938F93FE
:100320000E94BC04FF92EF92AF92BF9283E191E0F2
:100330009F938F93CE0142969F938F930E94BC040C
:100340000FB6F894DEBF0FBECDBF66C093E6E916C8
:10035000F10408F044C0CF92DF9286E291E09F93CF
:100360008F93CE0101969F938F930E94BC04FF92BE
:10037000EF92AF92BF9283E191E09F938F93CE0172
:1003800042969F938F930E94BC040FB6F894DEBFF1
:100390000FBECDBF41C094E6E916F10400F11F93F2
:1003A0000F93CF92DF9288E391E09F938F93CE01DA
:1003B00001969F938F930E94BC04AF92BF928AE4F0
:1003C00091E09F938F93CE0142969F938F930E94CB
:1003D000BC040FB6F894DEBF0FBECDBF1DC0CF92D8
:1003E000DF9286E291E09F938F93CE0101969F93D7
:1003F0008F930E94BC04AF92BF928AE491E09F93D6
:100400008F93CE0142969F938F930E94BC040FB6A8
:10041000F894DEBF0FBECDBF60E080E00E94F50023
:10042000CE0101960E94180161E080E00E94F50073
:10043000CE0142960E94180105C00436110508F04D
:1004400085CFCDCFA2960FB6F894DEBF0FBECDBF3D
:10045000DF91CF911F910F91FF90EF90DF90CF90A0
:10046000BF90AF90089590E080E80FB6F894809325
:100470006100909361000FBEC0E8F12C2F2D0FB6E4
:10048000F894C0936100209361000FBE8F2D0E94ED
:100490004B005C0181E00E944B008C01C5010E9471
:1004A00099026C01C8010E94640223E00FB6F8941F
:1004B000C0936100209361000FBE9C01A601B801AA
:1004C000C5010E946001DACFCF92DF92EF92FF92D6
:1004D0000F931F93BC0180E090E00E9452032BE831
:1004E0003CEE41E752E40E94E0030E94230303E54F
:1004F00010E720E030E068017901C61AD70AE80A5F
:10050000F90AC701B60124E630E040E050E00E945D
:100510009A04CA01B9010E9452030E944D040E942C
:100520002303CB011F910F91FF90EF90DF90CF90AD
:100530000895BC0180E090E00E9452032AE43CE070
:100540004CE251E40E94E0030E94230324E630E0E1
:1005500040E050E00E949A04CA01B9010E9452038F
:100560000E944D040E942303CB0108955058BB27DD
:10057000AA270E94CE020C94A6030E94980338F08A
:100580000E949F0320F039F49F3F19F426F40C9445
:1005900095030EF4E095E7FB0C948F03E92F0E947E
:1005A000B70358F3BA17620773078407950720F05B
:1005B00079F4A6F50C94D9030EF4E0950B2EBA2F1E
:1005C000A02D0B01B90190010C01CA01A001112459
:1005D000FF27591B99F0593F50F4503E68F11A1605
:1005E000F040A22F232F342F4427585FF3CF469596
:1005F00037952795A795F0405395C9F77EF41F16B8
:10060000BA0B620B730B840BBAF09150A1F0FF0F81
:10061000BB1F661F771F881FC2F70EC0BA0F621F6D
:10062000731F841F48F4879577956795B795F7955D
:100630009E3F08F0B0CF9395880F08F09927EE0FF2
:100640009795879508950E94BF0388F09F5798F06B
:10065000B92F9927B751B0F0E1F0660F771F881FC7
:10066000991F1AF0BA95C9F714C0B13091F00E94E1
:10067000D903B1E008950C94D903672F782F882708
:10068000B85F39F0B93FCCF3869577956795B39508
:10069000D9F73EF490958095709561957F4F8F4F77
:1006A0009F4F0895E89409C097FB3EF4909580957C
:1006B000709561957F4F8F4F9F4F9923A9F0F92F28
:1006C00096E9BB279395F695879577956795B795A6
:1006D000F111F8CFFAF4BB0F11F460FF1BC06F5F8C
:1006E0007F4F8F4F9F4F16C0882311F096E911C09E
:1006F000772321F09EE8872F762F05C0662371F0BF
:1007000096E8862F70E060E02AF09A95660F771FD2
:10071000881FDAF7880F9695879597F9089597F9C6
:100720009F6780E870E060E008959FEF80EC089597
:1007300000240A94161617061806090608950024C0
:100740000A9412161306140605060895092E03943A
:10075000000C11F4882352F0BB0F40F4BF2B11F4AE
:1007600060FF04C06F5F7F4F8F4F9F4F089557FD0D
:100770009058440F551F59F05F3F71F04795880F0F
:1007800097FB991F61F09F3F79F0879508951216A6
:1007900013061406551FF2CF4695F1DF08C0161652
:1007A00017061806991FF1CF869571056105089403
:1007B0000895E894BB2766277727CB0197F908951A
:1007C0000E94F3030C94A6030E94980338F00E9441
:1007D0009F0320F0952311F00C948F030C94950344
:1007E00011240C94DA030E94B70370F3959FC1F3B0
:1007F000950F50E0551F629FF001729FBB27F00DCF
:10080000B11D639FAA27F00DB11DAA1F649F662723
:10081000B00DA11D661F829F2227B00DA11D621F72
:10082000739FB00DA11D621F839FA00D611D221F2C
:10083000749F3327A00D611D231F849F600D211D10
:10084000822F762F6A2F11249F5750409AF0F1F093
:1008500088234AF0EE0FFF1FBB1F661F771F881FFC
:1008600091505040A9F79E3F510580F00C948F03A2
:100870000C94DA035F3FE4F3983ED4F386957795C2
:100880006795B795F795E7959F5FC1F7FE2B880FA2
:10089000911D9695879597F908950E94BF03E8F0FA
:1008A0009E37E8F09639B8F49E3848F4672F782FD1
:1008B0008827985FF9CF86957795679593959539B1
:1008C000D0F3B62FB1706B0F711D811D20F4879589
:1008D0007795679593950C9471040C948C040C9403
:1008E000DA03882371F4772321F09850872B762F31
:1008F00007C0662311F499270DC09051862B70E034
:1009000060E02AF09A95660F771F881FDAF7880F44
:100910009695879597F908959F3F31F0915020F46F
:10092000879577956795B795880F911D96958795CB
:1009300097F90895A1E21A2EAA1BBB1BFD010DC059
:10094000AA1FBB1FEE1FFF1FA217B307E407F5077F
:1009500020F0A21BB30BE40BF50B661F771F881F5B
:10096000991F1A9469F760957095809590959B01F1
:10097000AC01BD01CF010895AEE0B0E0E2ECF4E0DF
:100980000C946B070D891E8986E08C831A8309837A
:100990008FEF9FE79E838D83AE01475E5F4F6F8928
:1009A000788DCE0101960E94DF042F813885F801F1
:1009B000E20FF31F10822E96E4E00C948707ACE060
:1009C000B0E0E5EEF4E00C945D077C016B018A0178
:1009D000FC0117821682838181FFBDC1CE01019681
:1009E0004C01F7019381F60193FD859193FF81916D
:1009F0006F01882309F4ABC1853239F493FD8591E9
:100A000093FF81916F01853229F4B70190E00E9434
:100A1000C706E7CF512C312C20E02032A0F48B32D6
:100A200069F030F4803259F0833269F420612CC0CF
:100A30008D3239F0803339F4216026C02260246081
:100A400023C0286021C027FD27C030ED380F3A3081
:100A500078F426FF06C0FAE05F9E300D1124532E75
:100A600013C08AE0389E300D1124332E20620CC052
:100A70008E3221F426FD6BC1206406C08C3611F441
:100A8000206802C0883641F4F60193FD859193FFFA
:100A900081916F018111C1CF982F9F7D9554933023
:100AA00028F40C5F1F4FFFE3F9830DC0833631F04C
:100AB000833771F0833509F05BC022C0F801808173
:100AC00089830E5F1F4F44244394512C540115C059
:100AD0003801F2E06F0E711CF801A080B18026FF92
:100AE00003C0652D70E002C06FEF7FEFC5012C875A
:100AF0000E94BC062C0183012C852F77222E17C063
:100B00003801F2E06F0E711CF801A080B18026FF61
:100B100003C0652D70E002C06FEF7FEFC5012C8729
:100B20000E94B1062C012C852068222E830123FC13
:100B30001BC0832D90E048165906B0F4B70180E23F
:100B400090E00E94C7063A94F4CFF50127FC859106
:100B500027FE81915F01B70190E00E94C706311026
:100B60003A94F1E04F1A51084114510471F7E5C06D
:100B7000843611F0893639F5F80127FF07C0608106
:100B80007181828193810C5F1F4F08C060817181E8
:100B9000072E000C880B990B0E5F1F4F2F76722EBD
:100BA00097FF09C090958095709561957F4F8F4F05
:100BB0009F4F2068722E2AE030E0A4010E94FF06B9
:100BC000A82EA81844C0853729F42F7EB22E2AE01B
:100BD00030E025C0F22FF97FBF2E8F36C1F018F418
:100BE000883579F0B4C0803719F0883721F0AFC06C
:100BF0002F2F2061B22EB4FE0DC08B2D8460B82E35
:100C000009C024FF0AC09F2F9660B92E06C028E0B5
:100C100030E005C020E130E002C020E132E0F80120
:100C2000B7FE07C060817181828193810C5F1F4F85
:100C300006C06081718180E090E00E5F1F4FA401CB
:100C40000E94FF06A82EA818FB2DFF777F2E76FEA8
:100C50000BC0372D3E7FA51450F474FE0AC072FC01
:100C600008C0372D3E7E05C0BA2C372D03C0BA2CE4
:100C700001C0B52C34FF0DC0FE01EA0DF11D8081CD
:100C8000803311F4397E09C032FF06C0B394B394A7
:100C900004C0832F867809F0B39433FD13C030FF6E
:100CA00006C05A2CB31418F4530C5B18B32CB314AD
:100CB00068F4B70180E290E03C870E94C706B394D5
:100CC0003C85F5CFB31410F43B1801C0312C34FF30
:100CD00012C0B70180E390E03C870E94C7063C85C4
:100CE00032FF17C031FD03C088E790E002C088E5FD
:100CF00090E0B7010CC0832F867859F031FF02C015
:100D00008BE201C080E237FD8DE2B70190E00E94E6
:100D1000C706A51438F4B70180E390E00E94C70627
:100D20005A94F7CFAA94F401EA0DF11D8081B7011E
:100D300090E00E94C706A110F5CF332009F451CEF0
:100D4000B70180E290E00E94C7063A94F6CFF7011F
:100D50008681978102C08FEF9FEF2C96E2E10C9481
:100D60007907FC010590615070400110D8F780951B
:100D700090958E0F9F1F0895FC0161507040019067
:100D80000110D8F7809590958E0F9F1F08950F93AF
:100D90001F93CF93DF93FB01238121FD03C08FEFCE
:100DA0009FEF28C022FF16C04681578124813581DC
:100DB0004217530744F4A081B1819D012F5F3F4F3B
:100DC000318320838C93268137812F5F3F4F378378
:100DD000268310C0EB01092F182F0084F185E02D28
:100DE0000995892BE1F68E819F8101969F838E83E1
:100DF000812F902FDF91CF911F910F910895FA01CC
:100E0000AA27283051F1203181F1E8946F936E7F49
:100E10006E5F7F4F8F4F9F4FAF4FB1E03ED0B4E03A
:100E20003CD0670F781F891F9A1FA11D680F791F7B
:100E30008A1F911DA11D6A0F711D811D911DA11D8C
:100E400020D009F468943F912AE0269F112430199C
:100E5000305D3193DEF6CF010895462F4770405D37
:100E60004193B3E00FD0C9F7F6CF462F4F70405DE6
:100E70004A3318F0495D31FD4052419302D0A9F741
:100E8000EACFB4E0A6959795879577956795BA953B
:100E9000C9F700976105710508959B01AC010A2E01
:100EA00006945795479537952795BA95C9F7620FD8
:100EB000731F841F951FA01D08952F923F924F927C
:100EC0005F926F927F928F929F92AF92BF92CF92DA
:100ED000DF92EF92FF920F931F93CF93DF93CDB7E3
:100EE000DEB7CA1BDB0B0FB6F894DEBF0FBECDBF5B
:100EF00009942A88398848885F846E847D848C842C
:100F00009B84AA84B984C884DF80EE80FD800C8134
:100F10001B81AA81B981CE0FD11D0FB6F894DEBF17
:0C0F20000FBECDBFED010895F894FFCF87
:100F2C004C4D3335203A25342E3064202D2025327B
:100F3C0064430044494F44453A25342E3064202DF7
:100F4C002025326443004C4D3335203A25342E3065
:100F5C0064202D20203A28004C4D3335203A25347E
:100F6C002E3064202D202564430044494F44453ADB
:0C0F7C0025342E3064202D20203A28005F
:00000001FF
