S019000044696F64652054656D702053656E736F722E73726563D6
S11300000C9434000C9449000C9449000C9449005D
S11300100C9449000C9449000C9449000C94490038
S11300200C9449000C9449000C9449000C94490028
S11300300C9449000C9449000C9449000C94490018
S11300400C9449000C9449000C9449000C94490008
S11300500C9449000C9449000C9449000C944900F8
S11300600C9449000C94490011241FBECFEFD8E032
S1130070DEBFCDBF11E0A0E0B1E0E6EBF9E002C0E5
S113008005900D92A832B107D9F70E94E7010C94AC
S1130090D9040C940000EF92FF920F931F93CF9317
S11300A0DF93CDB7DEB7C054D1090FB6F894DEBFE5
S11300B00FBECDBFEBE7F0E090811082EAE7F0E0FD
S11300C0908194689083ECE7F0E090819064908351
S11300D09081892B80839E012F5F3F4F7E0182E0B8
S11300E0E80EF11CAE01405C5F4FEAE7F0E008E780
S11300F010E069E770E0808180648083808186FD00
S1130100FDCF808180618083D9011C92D7011C922C
S1130110D8018C91D9018C93DB018C91D7018C93FC
S11301208FEC97E00197F1F700C000002E5F3F4F7E
S113013092E0E90EF11CE416F506E9F6FE013496A8
S1130140DF0113978C9111963C9111962C91A0810B
S11301503496E417F507A1F790E0932BAC01990FBF
S1130160660B770B30E0C9019A2B092E000CAA0B01
S1130170BB0B840F951FA61FB71F689413F8B69581
S1130180A795979587951694D1F7C05CDF4F0FB666
S1130190F894DEBF0FBECDBFDF91CF911F910F91B9
S11301A0FF90EF9008955E9A00005E980895CF93B3
S11301B0DF93D82F662311F05C9A01C05C985D9898
S11301C08AB18F608AB9CBB1C07F8D2F82958F7031
S11301D08C2B8BB90E94D300DF70DC2BDBB90E941F
S11301E0D300CF60CBB9DF91CF910895882311F06C
S11301F05C9A01C05C985D9A8AB1807F8AB95E9AE4
S1130200000029B15E9800005E9A000099B1229521
S1130210207F892F8F705E98822B089580E00E9442
S1130220F6008823DCF300C000C080E00E94F600E2
S11302300895CF93C82F0E940E0160E08C2F0E9476
S1130240D700CF910895611104C080580E9419010C
S1130250089580540E941901089581E00E941901B3
S11302600895CF93C82F0E940E01CA3049F48034F8
S113027010F080E001C080E480580E94190104C09D
S113028061E08C2F0E94D700CF910895CF93DF9324
S1130290EC012196FC018081882329F00E94310120
S11302A089918111FBCFDF91CF910895CF93C82F0E
S11302B09AB19F679AB98FE99FE00197F1F700C05F
S11302C00000599A589A0E94D30081EE94E0019755
S11302D0F1F700C000000E94D30095E19A95F1F770
S11302E000000E94D30085E18A95F1F70000589838
S11302F00E94D30095E19A95F1F7000088E20E94EC
S1130300190188E00E9419010E942D0186E00E94D3
S113031019018C2F0E941901CF910895CF92DF9279
S1130320EF92FF920F931F93CF93DF93CDB7DEB776
S1130330A2970FB6F894DEBF0FBECDBFF82EE92EFC
S1130340162F072FC42ED22E8CE00E9456011F9226
S1130350CF92EF92FF9280E091E09F938F93CE0132
S113036001967C019F938F930E9401021F92DF925A
S11303700F931F9384E191E09F938F938E010E5E00
S11303801F4F1F930F930E94010260E080E00E94C0
S11303902301C7010E94460161E080E00E9423011D
S11303A0C8010E9446010FB6F894DEBF0FBECDBF50
S11303B0A2960FB6F894DEBF0FBECDBFDF91CF91EA
S11303C01F910F91FF90EF90DF90CF900895E1E699
S11303D0F0E080E880838081808381E00E944B008C
S11303E0EC0182E00E944B0020E040E0BC01CE0121
S11303F00E948E018FE19EE40197F1F700C0000096
S1130400ECCFAEE0B0E0E7E0F2E00C94B0040D898C
S11304101E8986E08C831A8309838FEF9FE79E836E
S11304208D83AE01475E5F4F6F89788DCE01019653
S11304300E9424022F813885F801E20FF31F1082F5
S11304402E96E4E00C94CC04ACE0B0E0EAE2F2E0F6
S11304500C94A2047C016B018A01FC0117821682B0
S1130460838181FFBDC1CE0101964C01F7019381C7
S1130470F60193FD859193FF81916F01882309F41F
S1130480ABC1853239F493FD859193FF81916F015E
S1130490853229F4B70190E00E940C04E7CF512C77
S11304A0312C20E02032A0F48B3269F030F4803219
S11304B059F0833269F420612CC08D3239F08033D5
S11304C039F4216026C02260246023C0286021C042
S11304D027FD27C030ED380F3A3078F426FF06C0E8
S11304E0FAE05F9E300D1124532E13C08AE0389E2B
S11304F0300D1124332E20620CC08E3221F426FDDF
S11305006BC1206406C08C3611F4206802C08836A2
S113051041F4F60193FD859193FF81916F0181115F
S1130520C1CF982F9F7D9554933028F40C5F1F4FB3
S1130530FFE3F9830DC0833631F0833771F08335DF
S113054009F05BC022C0F801808189830E5F1F4FD0
S113055044244394512C540115C03801F2E06F0E29
S1130560711CF801A080B18026FF03C0652D70E0E6
S113057002C06FEF7FEFC5012C870E9401042C019C
S113058083012C852F77222E17C03801F2E06F0EDD
S1130590711CF801A080B18026FF03C0652D70E0B6
S11305A002C06FEF7FEFC5012C870E94F6032C0178
S11305B02C852068222E830123FC1BC0832D90E010
S11305C048165906B0F4B70180E290E00E940C048A
S11305D03A94F4CFF50127FC859127FE81915F01C0
S11305E0B70190E00E940C0431103A94F1E04F1AE4
S11305F051084114510471F7E5C0843611F089366D
S113060039F5F80127FF07C06081718182819381E8
S11306100C5F1F4F08C060817181072E000C880B8E
S1130620990B0E5F1F4F2F76722E97FF09C090957E
S11306308095709561957F4F8F4F9F4F2068722EE4
S11306402AE030E0A4010E944404A82EA81844C063
S1130650853729F42F7EB22E2AE030E025C0F22F10
S1130660F97FBF2E8F36C1F018F4883579F0B4C005
S1130670803719F0883721F0AFC02F2F2061B22EB8
S1130680B4FE0DC08B2D8460B82E09C024FF0AC0AF
S11306909F2F9660B92E06C028E030E005C020E107
S11306A030E002C020E132E0F801B7FE07C060810B
S11306B07181828193810C5F1F4F06C060817181BB
S11306C080E090E00E5F1F4FA4010E944404A82E16
S11306D0A818FB2DFF777F2E76FE0BC0372D3E7FAB
S11306E0A51450F474FE0AC072FC08C0372D3E7E77
S11306F005C0BA2C372D03C0BA2C01C0B52C34FF69
S11307000DC0FE01EA0DF11D8081803311F4397EA4
S113071009C032FF06C0B394B39404C0832F867813
S113072009F0B39433FD13C030FF06C05A2CB31440
S113073018F4530C5B18B32CB31468F4B70180E2BB
S113074090E03C870E940C04B3943C85F5CFB3142D
S113075010F43B1801C0312C34FF12C0B70180E300
S113076090E03C870E940C043C8532FF17C031FDA9
S113077003C088E790E002C088E590E0B7010CC0B0
S1130780832F867859F031FF02C08BE201C080E2EA
S113079037FD8DE2B70190E00E940C04A51438F4F3
S11307A0B70180E390E00E940C045A94F7CFAA9416
S11307B0F401EA0DF11D8081B70190E00E940C0460
S11307C0A110F5CF332009F451CEB70180E290E0B7
S11307D00E940C043A94F6CFF7018681978102C0F7
S11307E08FEF9FEF2C96E2E10C94BE04FC01059080
S11307F0615070400110D8F7809590958E0F9F1F1F
S11308000895FC016150704001900110D8F7809563
S113081090958E0F9F1F08950F931F93CF93DF938F
S1130820FB01238121FD03C08FEF9FEF28C022FF2E
S113083016C046815781248135814217530744F4F9
S1130840A081B1819D012F5F3F4F318320838C9321
S1130850268137812F5F3F4F3783268310C0EB01FA
S1130860092F182F0084F185E02D0995892BE1F6D5
S11308708E819F8101969F838E83812F902FDF919C
S1130880CF911F910F910895FA01AA27283051F1B1
S1130890203181F1E8946F936E7F6E5F7F4F8F4FAD
S11308A09F4FAF4FB1E03ED0B4E03CD0670F781F0C
S11308B0891F9A1FA11D680F791F8A1F911DA11DF1
S11308C06A0F711D811D911DA11D20D009F468942A
S11308D03F912AE0269F11243019305D3193DEF6D2
S11308E0CF010895462F4770405D4193B3E00FD088
S11308F0C9F7F6CF462F4F70405D4A3318F0495D73
S113090031FD4052419302D0A9F7EACFB4E0A69555
S11309109795879577956795BA95C9F70097610577
S1130920710508959B01AC010A2E069457954795CD
S113093037952795BA95C9F7620F731F841F951FC2
S1130940A01D08952F923F924F925F926F927F92D3
S11309508F929F92AF92BF92CF92DF92EF92FF92CB
S11309600F931F93CF93DF93CDB7DEB7CA1BDB0B77
S11309700FB6F894DEBF0FBECDBF09942A8839881C
S113098048885F846E847D848C849B84AA84B98423
S1130990C884DF80EE80FD800C811B81AA81B9812F
S11309A0CE0FD11D0FB6F894DEBF0FBECDBFED0143
S10909B00895F894FFCF46
S11309B64C4D3335203A25342E3064202D25332EE4
S11309C63064430044494F44453A25342E3064206C
S10B09D62D25332E306443008B
S9030000FC
